:1000000033C000004CC000004AC0000048C00000DF
:1000100046C0000044C0000042C0000040C00000D4
:100020003EC000003CC000003AC0000038C00000E4
:1000300036C0000034C0000032C0000030C00000F4
:100040002EC000002CC000002AC0000028C0000004
:1000500026C0000024C0000022C0000020C0000014
:100060001EC000001CC0000011241FBECFEFD8E04E
:10007000DEBFCDBF11E0A0E0B1E0EEEDF4E002C0E4
:1000800005900D92A430B107D9F721E0A4E0B1E0CA
:1000900001C01D92AC3AB207E1F774D11EC2B0CFD5
:1000A000CF93DF93CDB7DEB727970FB6F894DEBFB7
:1000B0000FBECDBF80E990E09A83898380910401CF
:1000C0008B83E0910101F091020190818091000108
:1000D000892B8C83908180910001809589238D8369
:1000E0008D818E8388E08F835C816D814B813F8120
:1000F0002E8189819A81A5E0B1E0508347FD252FAB
:100100003A952083262F39F0441F00C000006083F9
:10011000000000C0F2CF38E04D91608300000197ED
:1001200061F7F0930201E09301014B833F832E833B
:100130009A83898327960FB6F894DEBF0FBECDBF92
:10014000DF91CF910895CF93DF93DB011396FC01EC
:1001500033969C01255E3F4FED0123978881EF0187
:1001600023978883ED0122979881EF012297988346
:10017000ED0121979881EF01219798839C919083BD
:1001800014963496E217F30739F7DF91CF9108956B
:10019000FF920F931F93CF93DF93EC01239621E0FF
:1001A00030E00FEF10E0E881F0E0DE0113974C91B2
:1001B0004E9FC0014F9F900D1124B80167D1F62EBC
:1001C000DE0112974C914E9FC0014F9F900D11245C
:1001D000B8015CD1462FDE0111975C915E9FC00192
:1001E0005F9F900D1124B80151D1962FB901685E1F
:1001F0007F4FF901ED5FFE4FF082F901EC5FFE4F9A
:100200004083F901EB5FFE4F90832D5F3F4F261730
:10021000370779F724969B016139710521F6DF9143
:10022000CF911F910F91FF9008951092C50087E61E
:100230008093C400E1ECF0E0808188618083E2EC8F
:10024000F0E08081866080830895E0ECF0E08081BA
:100250008823ECF78091C6000895E0ECF0E09081EF
:1002600095FFFDCF8093C6000895E1E8F0E080811E
:10027000887F8083B19A80818860808385ED91E05A
:1002800090938900809388001092850010928400DA
:10029000808185608083089596B3892F827091FF55
:1002A00006C0E1E8F0E08081887F808381E00895E6
:1002B00080E480937C0084E880937A000895ECE7E2
:1002C000F0E090818770987F892B8083EAE7F0E0E7
:1002D000808180648083808186FDFDCF809178005D
:1002E00090917900969587959695879508951F9397
:1002F000CF93DF9385E5B1DF86E0AFDF8BE0ADDF45
:10030000C0E016E68C2FDBDFD82FA7DF1D0FCF5FF5
:10031000C630C1F7812F8095A0DFDF91CF911F916B
:100320000895CF92DF92EF92FF921F93CF93DF93C6
:100330006C01E62EC42F15E5140F160F85E58DDF31
:100340008E2D8BDF8C2F89DFEE2089F0E601EA9479
:10035000F12C8FEFE81AF80AEC0CFD1C6E01899164
:100360007CDFF6018081180FCE15DF05B9F7812FEC
:10037000809573DFDF91CF911F91FF90EF90DF9019
:10038000CF900895CF93DF931F92CDB7DEB7259A14
:1003900087DE8EDF4ADF69DF88E1E4E9F1E0DF0133
:1003A0001D928A95E9F70F2EF0ECCF2ED12CF02D6F
:1003B0000F2EF4E15F2EF02D0F2EF5E14F2EF02DD4
:1003C000F601808188230CF056C03FDF853509F0A7
:1003D00052C08DB69EB639DF682E8DB79EB786198E
:1003E00091090FB6F8949EBF0FBE8DBFADB7BEB7D3
:1003F00011965D012ADF382E862D830D0F2EF5E52F
:100400007F2EF02D780E662091F08501EE24EA947F
:10041000E60CF12CBFEFEB1AFB0AEA0CFB1C15DF14
:10042000F80181938F01780EEE15FF05C1F70DDFFE
:10043000871116C0FAE03F120EC084E1681216C0A0
:10044000B50184E991E07FDE4982442D61E0CE016F
:10045000019667DF0BC094E1391208C048DF06C07F
:100460005982452D61E0CE0101965BDF0FB6F8940D
:100470009EBE0FBE8DBE10DF882309F4A1CF37DFEB
:1004800084E991E085DE0CDEF0DE9ACF97FB072E43
:1004900016F4009406D077FD08D00BD007FC05D0E9
:1004A0003EF4909581959F4F0895709561957F4F8B
:1004B0000895AA1BBB1B51E107C0AA1FBB1FA617AB
:1004C000B70710F0A61BB70B881F991F5A95A9F7FD
:0E04D00080959095BC01CD010895F894FFCF62
:0404DE0020250000D5
:00000001FF
